{
  "contractName": "Lottery",
  "abi": [
    {
      "inputs": [],
      "stateMutability": "nonpayable",
      "type": "constructor"
    },
    {
      "inputs": [],
      "name": "manager",
      "outputs": [
        {
          "internalType": "address",
          "name": "",
          "type": "address"
        }
      ],
      "stateMutability": "view",
      "type": "function",
      "constant": true
    },
    {
      "inputs": [
        {
          "internalType": "uint256",
          "name": "",
          "type": "uint256"
        }
      ],
      "name": "players",
      "outputs": [
        {
          "internalType": "address payable",
          "name": "",
          "type": "address"
        }
      ],
      "stateMutability": "view",
      "type": "function",
      "constant": true
    },
    {
      "stateMutability": "payable",
      "type": "receive",
      "payable": true
    },
    {
      "inputs": [],
      "name": "getBalance",
      "outputs": [
        {
          "internalType": "uint256",
          "name": "",
          "type": "uint256"
        }
      ],
      "stateMutability": "view",
      "type": "function",
      "constant": true
    },
    {
      "inputs": [],
      "name": "getPlayersLength",
      "outputs": [
        {
          "internalType": "uint256",
          "name": "",
          "type": "uint256"
        }
      ],
      "stateMutability": "view",
      "type": "function",
      "constant": true
    },
    {
      "inputs": [],
      "name": "random",
      "outputs": [
        {
          "internalType": "uint256",
          "name": "",
          "type": "uint256"
        }
      ],
      "stateMutability": "view",
      "type": "function",
      "constant": true
    },
    {
      "inputs": [],
      "name": "clearPlayers",
      "outputs": [],
      "stateMutability": "nonpayable",
      "type": "function"
    },
    {
      "inputs": [],
      "name": "pickWinner",
      "outputs": [
        {
          "internalType": "address",
          "name": "",
          "type": "address"
        }
      ],
      "stateMutability": "nonpayable",
      "type": "function"
    }
  ],
  "bytecode": "0x608060405234801561001057600080fd5b5033600160006101000a81548173ffffffffffffffffffffffffffffffffffffffff021916908373ffffffffffffffffffffffffffffffffffffffff1602179055506108a7806100616000396000f3fe6080604052600436106100745760003560e01c80635ec01e4d1161004e5780635ec01e4d146101ad578063cd61386d146101d8578063dac103f314610203578063f71d96cb1461021a57610127565b806312065fe01461012c578063481c6a75146101575780635d495aea1461018257610127565b366101275767016345785d8a000034146100c3576040517f08c379a00000000000000000000000000000000000000000000000000000000081526004016100ba906105ce565b60405180910390fd5b6000339080600181540180825580915050600190039060005260206000200160009091909190916101000a81548173ffffffffffffffffffffffffffffffffffffffff021916908373ffffffffffffffffffffffffffffffffffffffff1602179055005b600080fd5b34801561013857600080fd5b50610141610257565b60405161014e9190610607565b60405180910390f35b34801561016357600080fd5b5061016c6102b9565b6040516101799190610663565b60405180910390f35b34801561018e57600080fd5b506101976102df565b6040516101a49190610663565b60405180910390f35b3480156101b957600080fd5b506101c2610445565b6040516101cf9190610607565b60405180910390f35b3480156101e457600080fd5b506101ed61047f565b6040516101fa9190610607565b60405180910390f35b34801561020f57600080fd5b5061021861048b565b005b34801561022657600080fd5b50610241600480360381019061023c91906106af565b6104f4565b60405161024e91906106fd565b60405180910390f35b6000600160009054906101000a900473ffffffffffffffffffffffffffffffffffffffff1673ffffffffffffffffffffffffffffffffffffffff163373ffffffffffffffffffffffffffffffffffffffff16146102b357600080fd5b47905090565b600160009054906101000a900473ffffffffffffffffffffffffffffffffffffffff1681565b6000600160009054906101000a900473ffffffffffffffffffffffffffffffffffffffff1673ffffffffffffffffffffffffffffffffffffffff163373ffffffffffffffffffffffffffffffffffffffff161461033b57600080fd5b60036000805490501015610384576040517f08c379a000000000000000000000000000000000000000000000000000000000815260040161037b90610764565b60405180910390fd5b600061038e610445565b905060008080549050826103a291906107b3565b905060008082815481106103b9576103b86107e4565b5b9060005260206000200160009054906101000a900473ffffffffffffffffffffffffffffffffffffffff1690508073ffffffffffffffffffffffffffffffffffffffff166108fc610408610257565b9081150290604051600060405180830381858888f19350505050158015610433573d6000803e3d6000fd5b5061043c61048b565b80935050505090565b6000444260008054905060405160200161046193929190610834565b6040516020818303038152906040528051906020012060001c905090565b60008080549050905090565b600160009054906101000a900473ffffffffffffffffffffffffffffffffffffffff1673ffffffffffffffffffffffffffffffffffffffff163373ffffffffffffffffffffffffffffffffffffffff16146104e557600080fd5b6000806104f29190610533565b565b6000818154811061050457600080fd5b906000526020600020016000915054906101000a900473ffffffffffffffffffffffffffffffffffffffff1681565b50805460008255906000526020600020908101906105519190610554565b50565b5b8082111561056d576000816000905550600101610555565b5090565b600082825260208201905092915050565b7f494e56414c49445f45544845525f414d4f554e54000000000000000000000000600082015250565b60006105b8601483610571565b91506105c382610582565b602082019050919050565b600060208201905081810360008301526105e7816105ab565b9050919050565b6000819050919050565b610601816105ee565b82525050565b600060208201905061061c60008301846105f8565b92915050565b600073ffffffffffffffffffffffffffffffffffffffff82169050919050565b600061064d82610622565b9050919050565b61065d81610642565b82525050565b60006020820190506106786000830184610654565b92915050565b600080fd5b61068c816105ee565b811461069757600080fd5b50565b6000813590506106a981610683565b92915050565b6000602082840312156106c5576106c461067e565b5b60006106d38482850161069a565b91505092915050565b60006106e782610622565b9050919050565b6106f7816106dc565b82525050565b600060208201905061071260008301846106ee565b92915050565b7f4c455353205448414e203320504c415945525300000000000000000000000000600082015250565b600061074e601383610571565b915061075982610718565b602082019050919050565b6000602082019050818103600083015261077d81610741565b9050919050565b7f4e487b7100000000000000000000000000000000000000000000000000000000600052601260045260246000fd5b60006107be826105ee565b91506107c9836105ee565b9250826107d9576107d8610784565b5b828206905092915050565b7f4e487b7100000000000000000000000000000000000000000000000000000000600052603260045260246000fd5b6000819050919050565b61082e610829826105ee565b610813565b82525050565b6000610840828661081d565b602082019150610850828561081d565b602082019150610860828461081d565b60208201915081905094935050505056fea2646970667358221220360518a6fbae6c9aa3ef6d5addde14eb8b53a6e68c9cfc8c0c1f3d1dfa321fbc64736f6c634300080d0033",
  "immutableReferences": {},
  "source": "// SPDX-License-Identifier: GPL-3.0\r\n\r\npragma solidity >=0.5.0 <0.9.0;\r\n\r\ncontract Lottery {\r\n    address payable[] public players; //array of all players participating the lottery\r\n    address public manager; // the lottery manager\r\n\r\n    constructor() {\r\n        manager = msg.sender; // sets the lottery manager as the deployer account\r\n    }\r\n\r\n    // function  modifier to allow only the manager to access certain functions\r\n    modifier authorizeManager() {\r\n        require(msg.sender == manager);\r\n        _;\r\n    }\r\n\r\n    // automatic called function when the contract receives externally owned accounts transferences\r\n    receive() external payable {\r\n        require(msg.value == 0.1 ether, \"INVALID_ETHER_AMOUNT\");\r\n        players.push(payable(msg.sender)); // push the eth sender to players array, counting it's entry to the lottery\r\n    }\r\n\r\n    // returns the contract balance in wei\r\n    function getBalance() public view authorizeManager returns (uint256) {\r\n        return address(this).balance;\r\n    }\r\n\r\n    function getPlayersLength() public view returns (uint256) {\r\n        return players.length;\r\n    }\r\n\r\n    function random() public view returns (uint256) {\r\n        // WARNING: do not use this random generator in real apps\r\n        // TODO: search about chainlink to implement a real random generator\r\n        return\r\n            uint256(\r\n                keccak256(\r\n                    abi.encodePacked(\r\n                        block.difficulty,\r\n                        block.timestamp,\r\n                        players.length\r\n                    )\r\n                )\r\n            );\r\n    }\r\n\r\n    function clearPlayers() public authorizeManager {\r\n        delete (players);\r\n    }\r\n\r\n    function pickWinner() public authorizeManager returns (address) {\r\n        require(players.length >= 3, \"LESS THAN 3 PLAYERS\");\r\n\r\n        uint256 randomNumber = random();\r\n        uint256 winnerIndex = randomNumber % players.length;\r\n        address payable winner = players[winnerIndex];\r\n\r\n        winner.transfer(getBalance());\r\n\r\n        clearPlayers();\r\n\r\n        return winner;\r\n    }\r\n}\r\n",
  "sourcePath": "C:\\Users\\b_bri\\Documents\\solidity\\lottery\\src\\contracts\\lottery.sol",
  "compiler": {
    "name": "solc",
    "version": "0.8.13+commit.abaa5c0e.Emscripten.clang"
  },
  "schemaVersion": "3.4.6",
  "updatedAt": "2022-03-27T08:14:50.593Z",
  "networkType": "ethereum",
  "devdoc": {
    "kind": "dev",
    "methods": {},
    "version": 1
  },
  "userdoc": {
    "kind": "user",
    "methods": {},
    "version": 1
  }
}