{
  "contractName": "Lottery",
  "abi": [
    {
      "inputs": [],
      "stateMutability": "nonpayable",
      "type": "constructor"
    },
    {
      "inputs": [],
      "name": "manager",
      "outputs": [
        {
          "internalType": "address",
          "name": "",
          "type": "address"
        }
      ],
      "stateMutability": "view",
      "type": "function",
      "constant": true
    },
    {
      "inputs": [
        {
          "internalType": "uint256",
          "name": "",
          "type": "uint256"
        }
      ],
      "name": "players",
      "outputs": [
        {
          "internalType": "address payable",
          "name": "",
          "type": "address"
        }
      ],
      "stateMutability": "view",
      "type": "function",
      "constant": true
    },
    {
      "stateMutability": "payable",
      "type": "receive",
      "payable": true
    },
    {
      "inputs": [],
      "name": "getBalance",
      "outputs": [
        {
          "internalType": "uint256",
          "name": "",
          "type": "uint256"
        }
      ],
      "stateMutability": "view",
      "type": "function",
      "constant": true
    }
  ],
  "bytecode": "0x608060405234801561001057600080fd5b5033600160006101000a81548173ffffffffffffffffffffffffffffffffffffffff021916908373ffffffffffffffffffffffffffffffffffffffff160217905550610374806100616000396000f3fe6080604052600436106100385760003560e01c806312065fe0146100ba578063481c6a75146100e5578063f71d96cb14610110576100b5565b366100b55767016345785d8a0000341461005157600080fd5b6000339080600181540180825580915050600190039060005260206000200160009091909190916101000a81548173ffffffffffffffffffffffffffffffffffffffff021916908373ffffffffffffffffffffffffffffffffffffffff1602179055005b600080fd5b3480156100c657600080fd5b506100cf61014d565b6040516100dc919061022d565b60405180910390f35b3480156100f157600080fd5b506100fa6101af565b6040516101079190610289565b60405180910390f35b34801561011c57600080fd5b50610137600480360381019061013291906102d5565b6101d5565b6040516101449190610323565b60405180910390f35b6000600160009054906101000a900473ffffffffffffffffffffffffffffffffffffffff1673ffffffffffffffffffffffffffffffffffffffff163373ffffffffffffffffffffffffffffffffffffffff16146101a957600080fd5b47905090565b600160009054906101000a900473ffffffffffffffffffffffffffffffffffffffff1681565b600081815481106101e557600080fd5b906000526020600020016000915054906101000a900473ffffffffffffffffffffffffffffffffffffffff1681565b6000819050919050565b61022781610214565b82525050565b6000602082019050610242600083018461021e565b92915050565b600073ffffffffffffffffffffffffffffffffffffffff82169050919050565b600061027382610248565b9050919050565b61028381610268565b82525050565b600060208201905061029e600083018461027a565b92915050565b600080fd5b6102b281610214565b81146102bd57600080fd5b50565b6000813590506102cf816102a9565b92915050565b6000602082840312156102eb576102ea6102a4565b5b60006102f9848285016102c0565b91505092915050565b600061030d82610248565b9050919050565b61031d81610302565b82525050565b60006020820190506103386000830184610314565b9291505056fea2646970667358221220ab9b1e82db964e76a5403075e4bc2c8b1260e06e2748836c80ebf48f6bf24fd864736f6c634300080d0033",
  "immutableReferences": {},
  "source": "// SPDX-License-Identifier: GPL-3.0\r\n\r\npragma solidity >=0.5.0 <0.9.0;\r\n\r\ncontract Lottery {\r\n    address payable[] public players; //array of all players participating the lottery\r\n    address public manager; // the lottery manager\r\n\r\n    constructor() {\r\n        manager = msg.sender; // sets the lottery manager as the deployer account\r\n    }\r\n\r\n    // function  modifier to allow only the manager to access certain functions\r\n    modifier authorizeManager() {\r\n        require(msg.sender == manager);\r\n        _;\r\n    }\r\n\r\n    // automatic called function when the contract receives externally owned accounts transferences\r\n    receive() external payable {\r\n        require(msg.value == 0.1 ether);\r\n        players.push(payable(msg.sender)); // push the eth sender to players array, counting it's entry to the lottery\r\n    }\r\n\r\n    // returns the contract balance in wei\r\n    function getBalance() public view authorizeManager returns (uint256) {\r\n        return address(this).balance;\r\n    }\r\n}\r\n",
  "sourcePath": "C:\\Users\\b_bri\\Documents\\solidity\\lottery\\src\\contracts\\lottery.sol",
  "compiler": {
    "name": "solc",
    "version": "0.8.13+commit.abaa5c0e.Emscripten.clang"
  },
  "schemaVersion": "3.4.6",
  "updatedAt": "2022-03-22T20:15:54.684Z",
  "networkType": "ethereum",
  "devdoc": {
    "kind": "dev",
    "methods": {},
    "version": 1
  },
  "userdoc": {
    "kind": "user",
    "methods": {},
    "version": 1
  }
}